:03000000020AE011
:0C0AE000787FE4F6D8FD7581140209AFA0
:100AAE006F75747075743A004F626A656374206F67
:100ABE007574206F662072616E6765007374617263
:020ACE007400B2
:0A0AEC008F80C2A0120A86C2A22267
:0A0AF6008F80D2A0120A86C2A2224D
:060A52007BFF7A0A79AE79
:060A58008B0C8A0D890ED3
:100A5E00E4F50FF510AB0CAA0DA90E851082850FCB
:100A6E0083120800FF6010120AF60510E5107002DE
:070A7E00050F120A8A80DE59
:010A8500224E
:080A8600C2A1D2A27F017E0093
:100A8E00E4FDFCC3ED9FEC9E5015E4FBFA0BBB009E
:0F0A9E00010ABA04F8BBFBF50DBD00010C80E4A2
:010AAD002226
:100AD000E4F58CF58AD2B57F05FE120A8EC2B522E6
:10091100120AD020B218E51425E0FFE51333FE12C8
:100921000A8E0514E51470020513D29080E530B2E9
:100931000BAF14AE13120A8EC29080F2AF8CEFFE91
:10094100AD8A7C00E42DFFEC3EFE3395E08F0B8EEB
:100951000AF509F5087F81120AEC120A527F8A1200
:100961000AECE47F707E94FDFCAB0BAA0AA909A8EE
:1009710008C312082D5024E47B3BFAF9F8AF0BAE03
:100981000AAD09AC08120A0E8E118F12E51245113B
:100991006017EF2430FF120AF6800E7F06120AEC70
:0D09A1007BFF7A0A79B6120A58AE11AF1228
:0109AE002226
:1009AF007F38120AEC7F0C120AEC7F027E00120ACB
:1009BF008E1F120AEC7F027E00120A8E7F81120AAE
:1009CF00EC7F027E00120A8E7BFF7A0A79CA120A26
:1009DF00587F147E00120A8E758909D28CE4F58C2B
:1009EF00F58A43B0047F81120AEC120A5275130084
:0F09FF0075140A1209117F027E00120A8E80F40D
:10080000BB010CE58229F582E5833AF583E02250AD
:1008100006E92582F8E622BBFE06E92582F8E222F7
:0D082000E58229F582E5833AF583E4932211
:100A0E00C2D5E830E70FB2D5E4C39BFBE49AFAE413
:100A1E0099F9E498F8EC30E717B2D5120A441208A7
:100A2E007FE4C39BFBE49AFAE499F9E498F8800317
:100A3E0012087F30D50DE4C39FFFE49EFEE49DFDBA
:040A4E00E49CFC2206
:10082D00EB9FF5F0EA9E42F0E99D42F0EC6480C842
:06083D0064809845F022E2
:1008430075F008758200EF2FFFEE33FECD33CDCC6C
:1008530033CCC58233C5829BED9AEC99E5829840EF
:100863000CF582EE9BFEED9AFDEC99FC0FD5F0D6CC
:10087300E4CEFBE4CDFAE4CCF9A88222B800C1B9F6
:100883000059BA002DEC8BF084CFCECDFCE5F0CB34
:10089300F97818EF2FFFEE33FEED33FDEC33FCEB6D
:1008A30033FB10D703994004EB99FB0FD8E5E4F928
:1008B300FA227818EF2FFFEE33FEED33FDEC33FC15
:1008C300C933C910D7059BE99A4007EC9BFCE99A09
:1008D300F90FD8E0E4C9FAE4CCFB2275F010EF2F4E
:1008E300FFEE33FEED33FDCC33CCC833C810D7074E
:1008F3009BEC9AE899400AED9BFDEC9AFCE899F889
:0E0903000FD5F0DAE4CDFBE4CCFAE4C8F9221B
:00000001FF
