:03000000020A2FC2
:0C0A2F00787FE4F6D8FD7581070208000E
:10080000E4F580F590F5A075B0F0D292120A017F60
:1008100057120A191209CB7F45120A191209CB7F08
:100820004C120A191209CB7F43120A191209CB7F05
:100830004F120A191209CB7F4D120A191209CB7FE8
:1008400045120A191209CB120A3B7F50120A1912DB
:1008500009CB7F52120A191209CB7F45120A1912CD
:1008600009CB7F53120A191209CB7F53120A1912AE
:1008700009CB7F3A120A191209CB7F20120A1912EA
:1008800009CBD2B2D2B1D2B0C2B6C2B5C2B4C2B331
:1008900020B0051208A880EA20B10512090980E2FB
:0808A00020B2DF12096A80DAC0
:100A01007F387E001209EB7F0C7E001209EB120980
:080A1100E77F807E000209EB83
:070A3B007FC07E000209EB01
:0409E7007F017E000E
:1009EB00C2918FA0D2907F967E001209CFC2907FCA
:0609FB00967E000209CF08
:100A1900D2918FA0D2907F967E001209CFC2907F8B
:060A2900967E000209CFD9
:0409CB007F207EA16A
:1009CF00E4FDFCC3ED9FEE6480F8EC648098500763
:0709DF000DBD00010C80ECCE
:0109E60022EE
:1008A800D2B6D2B5D2B4D2B3C2B320B00F1209E7D0
:1008B8007F807E001209EB7F31120A19D2B3C2B4CD
:1008C80020B00F1209E77F807E001209EB7F3412F7
:1008D8000A19D2B4C2B520B00F1209E77F807E0092
:1008E8001209EB7F37120A19D2B5C2B620B00F121F
:1008F80009E77F807E001209EB7F2A120A19D2B617
:0109080022CC
:10090900D2B6D2B5D2B4D2B3C2B320B10F1209E76D
:100919007F807E001209EB7F32120A19D2B3C2B46A
:1009290020B10F1209E77F807E001209EB7F351293
:100939000A19D2B4C2B520B10F1209E77F807E002F
:100949001209EB7F38120A19D2B5C2B620B10F12BB
:1009590009E77F807E001209EB7F30120A19D2B6AF
:01096900226B
:10096A00D2B6D2B5D2B4D2B3C2B320B20F1209E70B
:10097A007F807E001209EB7F33120A19D2B3C2B408
:10098A0020B20F1209E77F807E001209EB7F361230
:10099A000A19D2B4C2B520B20F1209E77F807E00CD
:1009AA001209EB7F39120A19D2B5C2B620B20F1258
:1009BA0009E77F807E001209EB7F23120A19D2B65B
:0109CA00220A
:00000001FF
