:030000000209638F
:0C096300787FE4F6D8FD75810A02088256
:10080000496E697469616C697A696E6720536572B3
:1008100069616C20436F6D6D756E69636174696F9A
:100820006E00312C322C332C34206B6579206361BF
:100830006E206F6E206C65647320616E6420612C85
:10084000622C632C642063616E206F66662074687E
:10085000656D20726573706563746976656C792E59
:1008600000507265737320746865206B657920662B
:100870006F7220706172746963756C6172204C458F
:02088000440032
:1008820012097B12096FD2AFD2AC7BFF7A087900D2
:100892001209257F0D1209867BFF7A087922120937
:1008A200257F0D1209867BFF7A0879611209257F5F
:1008B2000D120986C29175A0381208F9C290120869
:1008C200FBC29175A00C1208F9C2901208FBC291EA
:1008D20075A0011208F9C2901208FBC29175A0809E
:1008E2001208F9C2901208FBD29175A0481208F9B9
:0708F200C2901208FB80FE1A
:0B097B00E4F580F590F5A075B00322B4
:0C096F00758920759850758DFDD28E2280
:100925008B088A09890AAB08AA09A90A12094A602B
:1009350013050AE50A7002050914F912094AFF129E
:05094500098680E2229A
:080986008F993099FDC29922FE
:0608F900D2907F967E0004
:1008FF00E4FDFCC3ED9FEE6480F8EC648098501526
:10090F00E4FBFA0BBB00010AEB64704A70F50DBDF6
:05091F0000010C80DE68
:0109240022B0
:10094A00BB010689828A83E0225002E722BBFE02AB
:09095A00E32289828A83E49322DE
:00000001FF
